{
  "_format": "hh-sol-artifact-1",
  "contractName": "Presale",
  "sourceName": "contracts/Presale.sol",
  "abi": [
    {
      "inputs": [
        {
          "internalType": "string",
          "name": "_metadataURI",
          "type": "string"
        },
        {
          "internalType": "address",
          "name": "_funder",
          "type": "address"
        },
        {
          "internalType": "uint256",
          "name": "_salePrice",
          "type": "uint256"
        },
        {
          "internalType": "contract ERC20",
          "name": "_paymentToken",
          "type": "address"
        },
        {
          "internalType": "contract ERC20",
          "name": "_saleToken",
          "type": "address"
        },
        {
          "internalType": "uint256",
          "name": "_startTime",
          "type": "uint256"
        },
        {
          "internalType": "uint256",
          "name": "_endTime",
          "type": "uint256"
        },
        {
          "internalType": "uint256",
          "name": "_maxTotalPayment",
          "type": "uint256"
        },
        {
          "internalType": "address",
          "name": "_taxCollector",
          "type": "address"
        },
        {
          "internalType": "uint16",
          "name": "_taxPercentage",
          "type": "uint16"
        },
        {
          "internalType": "address",
          "name": "_taxSetter",
          "type": "address"
        }
      ],
      "stateMutability": "nonpayable",
      "type": "constructor"
    },
    {
      "anonymous": false,
      "inputs": [
        {
          "indexed": true,
          "internalType": "address",
          "name": "sender",
          "type": "address"
        },
        {
          "indexed": false,
          "internalType": "uint256",
          "name": "paymentTokenBalance",
          "type": "uint256"
        },
        {
          "indexed": false,
          "internalType": "uint256",
          "name": "saleTokenBalance",
          "type": "uint256"
        }
      ],
      "name": "Cash",
      "type": "event"
    },
    {
      "anonymous": false,
      "inputs": [
        {
          "indexed": true,
          "internalType": "address",
          "name": "sender",
          "type": "address"
        },
        {
          "indexed": false,
          "internalType": "uint256",
          "name": "amount",
          "type": "uint256"
        }
      ],
      "name": "EmergencyTokenRetrieve",
      "type": "event"
    },
    {
      "anonymous": false,
      "inputs": [
        {
          "indexed": true,
          "internalType": "address",
          "name": "user",
          "type": "address"
        }
      ],
      "name": "EmergencyWithdrawal",
      "type": "event"
    },
    {
      "anonymous": false,
      "inputs": [
        {
          "indexed": true,
          "internalType": "address",
          "name": "sender",
          "type": "address"
        },
        {
          "indexed": false,
          "internalType": "uint256",
          "name": "amount",
          "type": "uint256"
        }
      ],
      "name": "Fund",
      "type": "event"
    },
    {
      "anonymous": false,
      "inputs": [
        {
          "indexed": false,
          "internalType": "string",
          "name": "metadataURI",
          "type": "string"
        }
      ],
      "name": "MetadataURIChanged",
      "type": "event"
    },
    {
      "anonymous": false,
      "inputs": [
        {
          "indexed": true,
          "internalType": "address",
          "name": "previousOwner",
          "type": "address"
        },
        {
          "indexed": true,
          "internalType": "address",
          "name": "newOwner",
          "type": "address"
        }
      ],
      "name": "OwnershipTransferred",
      "type": "event"
    },
    {
      "anonymous": false,
      "inputs": [
        {
          "indexed": true,
          "internalType": "address",
          "name": "sender",
          "type": "address"
        },
        {
          "indexed": false,
          "internalType": "uint256",
          "name": "paymentAmount",
          "type": "uint256"
        }
      ],
      "name": "Purchase",
      "type": "event"
    },
    {
      "anonymous": false,
      "inputs": [
        {
          "indexed": true,
          "internalType": "address",
          "name": "casher",
          "type": "address"
        }
      ],
      "name": "RemoveCasher",
      "type": "event"
    },
    {
      "anonymous": false,
      "inputs": [
        {
          "indexed": true,
          "internalType": "address",
          "name": "whitelistSetter",
          "type": "address"
        }
      ],
      "name": "RemoveWhitelistSetter",
      "type": "event"
    },
    {
      "anonymous": false,
      "inputs": [
        {
          "indexed": true,
          "internalType": "bytes32",
          "name": "role",
          "type": "bytes32"
        },
        {
          "indexed": true,
          "internalType": "bytes32",
          "name": "previousAdminRole",
          "type": "bytes32"
        },
        {
          "indexed": true,
          "internalType": "bytes32",
          "name": "newAdminRole",
          "type": "bytes32"
        }
      ],
      "name": "RoleAdminChanged",
      "type": "event"
    },
    {
      "anonymous": false,
      "inputs": [
        {
          "indexed": true,
          "internalType": "bytes32",
          "name": "role",
          "type": "bytes32"
        },
        {
          "indexed": true,
          "internalType": "address",
          "name": "account",
          "type": "address"
        },
        {
          "indexed": true,
          "internalType": "address",
          "name": "sender",
          "type": "address"
        }
      ],
      "name": "RoleGranted",
      "type": "event"
    },
    {
      "anonymous": false,
      "inputs": [
        {
          "indexed": true,
          "internalType": "bytes32",
          "name": "role",
          "type": "bytes32"
        },
        {
          "indexed": true,
          "internalType": "address",
          "name": "account",
          "type": "address"
        },
        {
          "indexed": true,
          "internalType": "address",
          "name": "sender",
          "type": "address"
        }
      ],
      "name": "RoleRevoked",
      "type": "event"
    },
    {
      "anonymous": false,
      "inputs": [
        {
          "indexed": true,
          "internalType": "address",
          "name": "casher",
          "type": "address"
        }
      ],
      "name": "SetCasher",
      "type": "event"
    },
    {
      "anonymous": false,
      "inputs": [
        {
          "components": [
            {
              "internalType": "uint256",
              "name": "claimTime",
              "type": "uint256"
            },
            {
              "internalType": "uint8",
              "name": "percentage",
              "type": "uint8"
            }
          ],
          "indexed": true,
          "internalType": "struct Vestable.CliffVesting[]",
          "name": "cliffPeriod",
          "type": "tuple[]"
        }
      ],
      "name": "SetCliffVestingPeriod",
      "type": "event"
    },
    {
      "anonymous": false,
      "inputs": [
        {
          "indexed": true,
          "internalType": "uint256",
          "name": "linearVestingEndTime",
          "type": "uint256"
        }
      ],
      "name": "SetLinearVestingEndTime",
      "type": "event"
    },
    {
      "anonymous": false,
      "inputs": [
        {
          "indexed": true,
          "internalType": "uint256",
          "name": "minTotalPayment",
          "type": "uint256"
        }
      ],
      "name": "SetMinTotalPayment",
      "type": "event"
    },
    {
      "anonymous": false,
      "inputs": [
        {
          "indexed": true,
          "internalType": "bytes32",
          "name": "whitelistRootHash",
          "type": "bytes32"
        }
      ],
      "name": "SetWhitelist",
      "type": "event"
    },
    {
      "anonymous": false,
      "inputs": [
        {
          "indexed": true,
          "internalType": "address",
          "name": "whitelistSetter",
          "type": "address"
        }
      ],
      "name": "SetWhitelistSetter",
      "type": "event"
    },
    {
      "anonymous": false,
      "inputs": [
        {
          "indexed": true,
          "internalType": "uint24",
          "name": "withdrawDelay",
          "type": "uint24"
        }
      ],
      "name": "SetWithdrawDelay",
      "type": "event"
    },
    {
      "anonymous": false,
      "inputs": [
        {
          "indexed": true,
          "internalType": "address",
          "name": "sender",
          "type": "address"
        },
        {
          "indexed": false,
          "internalType": "uint256",
          "name": "amount",
          "type": "uint256"
        }
      ],
      "name": "Withdraw",
      "type": "event"
    },
    {
      "inputs": [],
      "name": "CASHER_ROLE",
      "outputs": [
        {
          "internalType": "bytes32",
          "name": "",
          "type": "bytes32"
        }
      ],
      "stateMutability": "view",
      "type": "function"
    },
    {
      "inputs": [],
      "name": "DEFAULT_ADMIN_ROLE",
      "outputs": [
        {
          "internalType": "bytes32",
          "name": "",
          "type": "bytes32"
        }
      ],
      "stateMutability": "view",
      "type": "function"
    },
    {
      "inputs": [],
      "name": "FUNDER_ROLE",
      "outputs": [
        {
          "internalType": "bytes32",
          "name": "",
          "type": "bytes32"
        }
      ],
      "stateMutability": "view",
      "type": "function"
    },
    {
      "inputs": [],
      "name": "WHITELIST_SETTER_ROLE",
      "outputs": [
        {
          "internalType": "bytes32",
          "name": "",
          "type": "bytes32"
        }
      ],
      "stateMutability": "view",
      "type": "function"
    },
    {
      "inputs": [],
      "name": "cash",
      "outputs": [],
      "stateMutability": "nonpayable",
      "type": "function"
    },
    {
      "inputs": [
        {
          "internalType": "address",
          "name": "user",
          "type": "address"
        },
        {
          "internalType": "bytes32[]",
          "name": "merkleProof",
          "type": "bytes32[]"
        }
      ],
      "name": "checkWhitelist",
      "outputs": [
        {
          "internalType": "bool",
          "name": "",
          "type": "bool"
        }
      ],
      "stateMutability": "view",
      "type": "function"
    },
    {
      "inputs": [
        {
          "internalType": "address",
          "name": "",
          "type": "address"
        }
      ],
      "name": "claimable",
      "outputs": [
        {
          "internalType": "uint256",
          "name": "",
          "type": "uint256"
        }
      ],
      "stateMutability": "view",
      "type": "function"
    },
    {
      "inputs": [
        {
          "internalType": "uint256",
          "name": "",
          "type": "uint256"
        }
      ],
      "name": "cliffPeriod",
      "outputs": [
        {
          "internalType": "uint256",
          "name": "claimTime",
          "type": "uint256"
        },
        {
          "internalType": "uint8",
          "name": "percentage",
          "type": "uint8"
        }
      ],
      "stateMutability": "view",
      "type": "function"
    },
    {
      "inputs": [
        {
          "internalType": "address",
          "name": "token",
          "type": "address"
        }
      ],
      "name": "emergencyTokenRetrieve",
      "outputs": [],
      "stateMutability": "nonpayable",
      "type": "function"
    },
    {
      "inputs": [],
      "name": "emergencyWithdraw",
      "outputs": [],
      "stateMutability": "nonpayable",
      "type": "function"
    },
    {
      "inputs": [],
      "name": "endTime",
      "outputs": [
        {
          "internalType": "uint256",
          "name": "",
          "type": "uint256"
        }
      ],
      "stateMutability": "view",
      "type": "function"
    },
    {
      "inputs": [
        {
          "internalType": "uint256",
          "name": "amount",
          "type": "uint256"
        }
      ],
      "name": "fund",
      "outputs": [],
      "stateMutability": "nonpayable",
      "type": "function"
    },
    {
      "inputs": [],
      "name": "getCliffPeriod",
      "outputs": [
        {
          "components": [
            {
              "internalType": "uint256",
              "name": "claimTime",
              "type": "uint256"
            },
            {
              "internalType": "uint8",
              "name": "percentage",
              "type": "uint8"
            }
          ],
          "internalType": "struct Vestable.CliffVesting[]",
          "name": "",
          "type": "tuple[]"
        }
      ],
      "stateMutability": "view",
      "type": "function"
    },
    {
      "inputs": [
        {
          "internalType": "address",
          "name": "user",
          "type": "address"
        }
      ],
      "name": "getCurrentClaimableToken",
      "outputs": [
        {
          "internalType": "uint256",
          "name": "",
          "type": "uint256"
        }
      ],
      "stateMutability": "view",
      "type": "function"
    },
    {
      "inputs": [
        {
          "internalType": "bytes32",
          "name": "role",
          "type": "bytes32"
        }
      ],
      "name": "getRoleAdmin",
      "outputs": [
        {
          "internalType": "bytes32",
          "name": "",
          "type": "bytes32"
        }
      ],
      "stateMutability": "view",
      "type": "function"
    },
    {
      "inputs": [
        {
          "internalType": "uint256",
          "name": "totalPurchased",
          "type": "uint256"
        },
        {
          "internalType": "uint256",
          "name": "claimable",
          "type": "uint256"
        },
        {
          "internalType": "address",
          "name": "user",
          "type": "address"
        }
      ],
      "name": "getUnlockedToken",
      "outputs": [
        {
          "internalType": "uint256",
          "name": "",
          "type": "uint256"
        }
      ],
      "stateMutability": "view",
      "type": "function"
    },
    {
      "inputs": [
        {
          "internalType": "bytes32",
          "name": "role",
          "type": "bytes32"
        },
        {
          "internalType": "address",
          "name": "account",
          "type": "address"
        }
      ],
      "name": "grantRole",
      "outputs": [],
      "stateMutability": "nonpayable",
      "type": "function"
    },
    {
      "inputs": [],
      "name": "hasCashed",
      "outputs": [
        {
          "internalType": "bool",
          "name": "",
          "type": "bool"
        }
      ],
      "stateMutability": "view",
      "type": "function"
    },
    {
      "inputs": [
        {
          "internalType": "bytes32",
          "name": "role",
          "type": "bytes32"
        },
        {
          "internalType": "address",
          "name": "account",
          "type": "address"
        }
      ],
      "name": "hasRole",
      "outputs": [
        {
          "internalType": "bool",
          "name": "",
          "type": "bool"
        }
      ],
      "stateMutability": "view",
      "type": "function"
    },
    {
      "inputs": [
        {
          "internalType": "address",
          "name": "",
          "type": "address"
        }
      ],
      "name": "hasWithdrawn",
      "outputs": [
        {
          "internalType": "bool",
          "name": "",
          "type": "bool"
        }
      ],
      "stateMutability": "view",
      "type": "function"
    },
    {
      "inputs": [
        {
          "internalType": "address",
          "name": "",
          "type": "address"
        }
      ],
      "name": "latestClaimTime",
      "outputs": [
        {
          "internalType": "uint256",
          "name": "",
          "type": "uint256"
        }
      ],
      "stateMutability": "view",
      "type": "function"
    },
    {
      "inputs": [],
      "name": "linearVestingEndTime",
      "outputs": [
        {
          "internalType": "uint256",
          "name": "",
          "type": "uint256"
        }
      ],
      "stateMutability": "view",
      "type": "function"
    },
    {
      "inputs": [],
      "name": "maxTotalPayment",
      "outputs": [
        {
          "internalType": "uint256",
          "name": "",
          "type": "uint256"
        }
      ],
      "stateMutability": "view",
      "type": "function"
    },
    {
      "inputs": [],
      "name": "metadataURI",
      "outputs": [
        {
          "internalType": "string",
          "name": "",
          "type": "string"
        }
      ],
      "stateMutability": "view",
      "type": "function"
    },
    {
      "inputs": [],
      "name": "minTotalPayment",
      "outputs": [
        {
          "internalType": "uint256",
          "name": "",
          "type": "uint256"
        }
      ],
      "stateMutability": "view",
      "type": "function"
    },
    {
      "inputs": [],
      "name": "owner",
      "outputs": [
        {
          "internalType": "address",
          "name": "",
          "type": "address"
        }
      ],
      "stateMutability": "view",
      "type": "function"
    },
    {
      "inputs": [
        {
          "internalType": "address",
          "name": "",
          "type": "address"
        }
      ],
      "name": "paymentReceived",
      "outputs": [
        {
          "internalType": "uint256",
          "name": "",
          "type": "uint256"
        }
      ],
      "stateMutability": "view",
      "type": "function"
    },
    {
      "inputs": [],
      "name": "paymentToken",
      "outputs": [
        {
          "internalType": "contract ERC20",
          "name": "",
          "type": "address"
        }
      ],
      "stateMutability": "view",
      "type": "function"
    },
    {
      "inputs": [
        {
          "internalType": "uint256",
          "name": "paymentAmount",
          "type": "uint256"
        }
      ],
      "name": "purchase",
      "outputs": [],
      "stateMutability": "nonpayable",
      "type": "function"
    },
    {
      "inputs": [],
      "name": "purchaserCount",
      "outputs": [
        {
          "internalType": "uint32",
          "name": "",
          "type": "uint32"
        }
      ],
      "stateMutability": "view",
      "type": "function"
    },
    {
      "inputs": [
        {
          "internalType": "address",
          "name": "_casher",
          "type": "address"
        }
      ],
      "name": "removeCasher",
      "outputs": [],
      "stateMutability": "nonpayable",
      "type": "function"
    },
    {
      "inputs": [
        {
          "internalType": "address",
          "name": "_whitelistSetter",
          "type": "address"
        }
      ],
      "name": "removeWhitelistSetter",
      "outputs": [],
      "stateMutability": "nonpayable",
      "type": "function"
    },
    {
      "inputs": [],
      "name": "renounceOwnership",
      "outputs": [],
      "stateMutability": "nonpayable",
      "type": "function"
    },
    {
      "inputs": [
        {
          "internalType": "bytes32",
          "name": "role",
          "type": "bytes32"
        },
        {
          "internalType": "address",
          "name": "account",
          "type": "address"
        }
      ],
      "name": "renounceRole",
      "outputs": [],
      "stateMutability": "nonpayable",
      "type": "function"
    },
    {
      "inputs": [
        {
          "internalType": "bytes32",
          "name": "role",
          "type": "bytes32"
        },
        {
          "internalType": "address",
          "name": "account",
          "type": "address"
        }
      ],
      "name": "revokeRole",
      "outputs": [],
      "stateMutability": "nonpayable",
      "type": "function"
    },
    {
      "inputs": [],
      "name": "saleAmount",
      "outputs": [
        {
          "internalType": "uint256",
          "name": "",
          "type": "uint256"
        }
      ],
      "stateMutability": "view",
      "type": "function"
    },
    {
      "inputs": [],
      "name": "salePrice",
      "outputs": [
        {
          "internalType": "uint256",
          "name": "",
          "type": "uint256"
        }
      ],
      "stateMutability": "view",
      "type": "function"
    },
    {
      "inputs": [
        {
          "internalType": "address",
          "name": "_casher",
          "type": "address"
        }
      ],
      "name": "setCasher",
      "outputs": [],
      "stateMutability": "nonpayable",
      "type": "function"
    },
    {
      "inputs": [
        {
          "internalType": "uint256[]",
          "name": "claimTimes",
          "type": "uint256[]"
        },
        {
          "internalType": "uint8[]",
          "name": "pct",
          "type": "uint8[]"
        }
      ],
      "name": "setCliffPeriod",
      "outputs": [],
      "stateMutability": "nonpayable",
      "type": "function"
    },
    {
      "inputs": [
        {
          "internalType": "uint256",
          "name": "_vestingEndTime",
          "type": "uint256"
        }
      ],
      "name": "setLinearVestingEndTime",
      "outputs": [],
      "stateMutability": "nonpayable",
      "type": "function"
    },
    {
      "inputs": [
        {
          "internalType": "string",
          "name": "_metadataURI",
          "type": "string"
        }
      ],
      "name": "setMetadataURI",
      "outputs": [],
      "stateMutability": "nonpayable",
      "type": "function"
    },
    {
      "inputs": [
        {
          "internalType": "uint256",
          "name": "_minTotalPayment",
          "type": "uint256"
        }
      ],
      "name": "setMinTotalPayment",
      "outputs": [],
      "stateMutability": "nonpayable",
      "type": "function"
    },
    {
      "inputs": [
        {
          "internalType": "address",
          "name": "_taxCollector",
          "type": "address"
        }
      ],
      "name": "setTaxCollector",
      "outputs": [],
      "stateMutability": "nonpayable",
      "type": "function"
    },
    {
      "inputs": [
        {
          "internalType": "uint8",
          "name": "_taxPercentage",
          "type": "uint8"
        }
      ],
      "name": "setTaxPercentage",
      "outputs": [],
      "stateMutability": "nonpayable",
      "type": "function"
    },
    {
      "inputs": [
        {
          "internalType": "bytes32",
          "name": "_whitelistRootHash",
          "type": "bytes32"
        }
      ],
      "name": "setWhitelist",
      "outputs": [],
      "stateMutability": "nonpayable",
      "type": "function"
    },
    {
      "inputs": [
        {
          "internalType": "address",
          "name": "_whitelistSetter",
          "type": "address"
        }
      ],
      "name": "setWhitelistSetter",
      "outputs": [],
      "stateMutability": "nonpayable",
      "type": "function"
    },
    {
      "inputs": [
        {
          "internalType": "uint24",
          "name": "_withdrawDelay",
          "type": "uint24"
        }
      ],
      "name": "setWithdrawDelay",
      "outputs": [],
      "stateMutability": "nonpayable",
      "type": "function"
    },
    {
      "inputs": [],
      "name": "startTime",
      "outputs": [
        {
          "internalType": "uint256",
          "name": "",
          "type": "uint256"
        }
      ],
      "stateMutability": "view",
      "type": "function"
    },
    {
      "inputs": [
        {
          "internalType": "bytes4",
          "name": "interfaceId",
          "type": "bytes4"
        }
      ],
      "name": "supportsInterface",
      "outputs": [
        {
          "internalType": "bool",
          "name": "",
          "type": "bool"
        }
      ],
      "stateMutability": "view",
      "type": "function"
    },
    {
      "inputs": [],
      "name": "taxCollector",
      "outputs": [
        {
          "internalType": "address",
          "name": "",
          "type": "address"
        }
      ],
      "stateMutability": "view",
      "type": "function"
    },
    {
      "inputs": [],
      "name": "taxPercentage",
      "outputs": [
        {
          "internalType": "uint16",
          "name": "",
          "type": "uint16"
        }
      ],
      "stateMutability": "view",
      "type": "function"
    },
    {
      "inputs": [],
      "name": "taxSetterRole",
      "outputs": [
        {
          "internalType": "bytes32",
          "name": "",
          "type": "bytes32"
        }
      ],
      "stateMutability": "view",
      "type": "function"
    },
    {
      "inputs": [],
      "name": "totalPaymentReceived",
      "outputs": [
        {
          "internalType": "uint256",
          "name": "",
          "type": "uint256"
        }
      ],
      "stateMutability": "view",
      "type": "function"
    },
    {
      "inputs": [
        {
          "internalType": "address",
          "name": "",
          "type": "address"
        }
      ],
      "name": "totalPurchased",
      "outputs": [
        {
          "internalType": "uint256",
          "name": "",
          "type": "uint256"
        }
      ],
      "stateMutability": "view",
      "type": "function"
    },
    {
      "inputs": [
        {
          "internalType": "address",
          "name": "newOwner",
          "type": "address"
        }
      ],
      "name": "transferOwnership",
      "outputs": [],
      "stateMutability": "nonpayable",
      "type": "function"
    },
    {
      "inputs": [],
      "name": "whitelistRootHash",
      "outputs": [
        {
          "internalType": "bytes32",
          "name": "",
          "type": "bytes32"
        }
      ],
      "stateMutability": "view",
      "type": "function"
    },
    {
      "inputs": [
        {
          "internalType": "uint256",
          "name": "paymentAmount",
          "type": "uint256"
        },
        {
          "internalType": "bytes32[]",
          "name": "merkleProof",
          "type": "bytes32[]"
        }
      ],
      "name": "whitelistedPurchase",
      "outputs": [],
      "stateMutability": "nonpayable",
      "type": "function"
    },
    {
      "inputs": [],
      "name": "withdraw",
      "outputs": [],
      "stateMutability": "nonpayable",
      "type": "function"
    },
    {
      "inputs": [],
      "name": "withdrawDelay",
      "outputs": [
        {
          "internalType": "uint24",
          "name": "",
          "type": "uint24"
        }
      ],
      "stateMutability": "view",
      "type": "function"
    },
    {
      "inputs": [
        {
          "internalType": "bytes32[]",
          "name": "merkleProof",
          "type": "bytes32[]"
        }
      ],
      "name": "withdrawGiveaway",
      "outputs": [],
      "stateMutability": "nonpayable",
      "type": "function"
    },
    {
      "inputs": [],
      "name": "withdrawTime",
      "outputs": [
        {
          "internalType": "uint256",
          "name": "",
          "type": "uint256"
        }
      ],
      "stateMutability": "view",
      "type": "function"
    },
    {
      "inputs": [],
      "name": "withdrawerCount",
      "outputs": [
        {
          "internalType": "uint32",
          "name": "",
          "type": "uint32"
        }
      ],
      "stateMutability": "view",
      "type": "function"
    }
  ],
  "bytecode": "0x610120604081815234620007b15762003dc28038038091620000228286620007fc565b8439820161016083820312620007b15782516001600160401b0390818111620007b157840193601f838187011215620007b1578551838111620007ca57855190602097601f19966200007b8a89878601160185620007fc565b828452898383010111620007b15760005b828110620007b657505096600081620000f09984010152620000b081850162000820565b8785015190620000c36060870162000820565b620000d16080880162000820565b60a08801519160c08901519360e08a0151996101009e8f820162000820565b906101208101519161ffff83168303620007b1578f9262000119610140620001bd940162000820565b60008054336001600160a01b031982168117835596516001600160a01b0397939593909290918816907f8be0079c531659141344cd1fd0a4f28419497f9722a3daafe3b4186f6b6457e09080a38c8101906e5441585f5345545445525f524f4c4560881b8252600f81526200018e81620007e0565b5190209182600355856002549161ffff60a01b9060a01b1692169060018060b01b031916171760025562000835565b60019a6004978c8955801580158062000782575b50156200070957908f9291600555846080526006558151898101906a46554e4445525f524f4c4560a81b8252600b81526200020c81620007e0565b5190209182600a5551898101906a4341534845525f524f4c4560a81b8252600b81526200023981620007e0565b519020600b558085168185168114620006c6571562000693578542101562000650576301e1853d19860186811162000590574211156200060257610e0f1987018781116200059057861015620005a5576312cc02ff19870187811162000590578611156200054257821615620005115790620002b59162000835565b60e0528b5260a0528060c0526012558751828101907f57484954454c4953545f5345545445525f524f4c450000000000000000000000825260158152620002fc81620007e0565b5190206017558251958611620004fc57601a54908582811c92168015620004f1575b83831014620004dc575083811162000490575b50809285116001146200042557508394509083929160009462000419575b50501b916000199060031b1c191617601a555b516135119182620008b183396080518281816104c901528181611dc50152612c79015260a0518281816103bd015281816107450152818161085001528181610a0801528181611067015281816114300152612386015260c0518281816103e801528181610a3801528181610cae01528181611b7201528181611d8d01528181611e530152818161204e01526123b1015260e05182610d0e01525181818161087e01528181610d7b01528181611e860152612df70152f35b0151925038806200034f565b929484908116601a60005284600020946000905b888383106200047557505050106200045b575b505050811b01601a5562000362565b015160001960f88460031b161c191690553880806200044c565b85870151885590960195948501948793509081019062000439565b601a600052816000208480880160051c820192848910620004d2575b0160051c019085905b828110620004c557505062000331565b60008155018590620004b5565b92508192620004ac565b602290634e487b7160e01b6000525260246000fd5b91607f16916200031e565b604190634e487b7160e01b6000525260246000fd5b508c5162461bcd60e51b8152808701889052600a602482015269183c1810333ab73232b960b11b6044820152606490fd5b8e5162461bcd60e51b81528089018a9052602260248201527f656e642074696d652068617320746f2062652077697468696e20313020796561604482015261727360f01b6064820152608490fd5b601189634e487b7160e01b6000525260246000fd5b8e5162461bcd60e51b81528089018a9052603160248201527f656e642074696d657374616d70206265666f72652073746172742073686f756c60448201527032103132903632b0b9ba1018903437bab960791b6064820152608490fd5b8e5162461bcd60e51b81528089018a9052602260248201527f73746172742074696d652068617320746f2062652077697468696e203120796560448201526130b960f11b6064820152608490fd5b8e5162461bcd60e51b81528089018a9052601960248201527f73746172742074696d657374616d7020746f6f206561726c79000000000000006044820152606490fd5b8e5162461bcd60e51b81528089018a9052600d60248201526c183c181039b0b632aa37b5b2b760991b6044820152606490fd5b8f5162461bcd60e51b8152808a018b9052601860248201527f73616c65546f6b656e203d207061796d656e74546f6b656e00000000000000006044820152606490fd5b8f5162461bcd60e51b8152808a018b9052604760248201527f7061796d656e74546f6b656e206f72206d6178546f74616c5061796d656e742060448201527f73686f756c64206e6f742062652030207768656e2073616c6550726963652069606482015266073206e6f7420360cc1b608482015260a490fd5b905080620007a4575b8062000799575b38620001d1565b508082101562000792565b508285163b15156200078b565b600080fd5b8181018a01518482018b015289016200008c565b634e487b7160e01b600052604160045260246000fd5b604081019081106001600160401b03821117620007ca57604052565b601f909101601f19168101906001600160401b03821190821017620007ca57604052565b51906001600160a01b0382168203620007b157565b906000918083526001602052604083209160018060a01b03169182845260205260ff604084205416156200086857505050565b80835260016020526040832082845260205260408320600160ff198254161790557f2f8788117e7eff1d82e926ec794901d17c78024a50270940304540a733656f0d339380a456fe6040608081526004908136101561001557600080fd5b600091823560e01c90816301fc191c1461234557816301ffc9a7146122ef5781630288a39c146122cb57816303ee438c146121f857816308695b41146121985781631101eaaf146121735781631637cde01461200b5781631649a8a914611fbb578163248a9ca314611f91578163252b99c514611f4a57816326c6548214611e1e5781632f2ff15d14611df45781633013ce2914611db05781633197cbb614611d7557816334aedecd14611d5657816336568abe14611cc45781633c4dcee614611c165781633ccfd60b14611b4f5781633d9205c114611a74578163402914f514611a3c578163440bc7f3146119715781634525da39146118cd57816345cb3dde146118ae5781634797a5481461188f57816348faade414611870578163497aef2814611838578163547a5eee146117875781635559638f1461174f5781635b2ee404146117175781635dbb4dbd146116d65781635e2c19db14611698578163642d0f701461165f578163715018a614611614578163750521f51461145357816378e97925146114185781637dd20946146113f457816389910cac1461100b5781638aae995a14610fec5781638da5cb5b14610fc457816391d1485414610f7d578163961be39114610c6757816398e69e2814610c48578163a217fddf14610c2d578163a590c84e14610b86578163a5ffad5214610b24578163a89e852214610b05578163aacc557a146109d8578163ae2cd52d146109b9578163ae7b6d1614610993578163bea1dcf81461096a578163bf8682f11461094b578163c9a2ff431461091e578163ca1d209d14610814578163cddfb5fd14610722578163d1a12d6a14610703578163d547741f146106c8578163d6ca214d146106a3578163d98b1f9d14610684578163db2e21bc14610464578163efef39a1146103a3578163f2fde38b146102ee575063f51f96dd146102cd57600080fd5b346102ea57816003193601126102ea576020906005549051908152f35b5080fd5b90503461039f57602036600319011261039f576103096124fe565b9061031261296f565b6001600160a01b0391821692831561034d57505082546001600160a01b03198116831784551660008051602061349c8339815191528380a380f35b906020608492519162461bcd60e51b8352820152602660248201527f4f776e61626c653a206e6577206f776e657220697320746865207a65726f206160448201526564647265737360d01b6064820152fd5b8280fd5b9190503461039f57602036600319011261039f576103e3427f00000000000000000000000000000000000000000000000000000000000000001115612af6565b61040e7f00000000000000000000000000000000000000000000000000000000000000004210612b37565b60165461042657506006546104239135612c3e565b80f35b906020606492519162461bcd60e51b835282015260186024820152777573652077686974656c697374656420707572636861736560401b6044820152fd5b9190503461039f578260031936011261039f57610485600283541415612bab565b6002825560ff600f5416610642573383526020600d815260ff82852054166105e057338452600881528184205415610593573380855260088252828520546104f6917f00000000000000000000000000000000000000000000000000000000000000006001600160a01b03166132f1565b503384526008815261050d82852054601054612a8e565b60105560095463ffffffff80821660001901818111610580579260019594926018928895169063ffffffff19161760095533845260088152838381205560198152838381205552812055337fa70f26764574533b4d511b70b39191ceaaa63e9eb8f2b43e4646488a014be3498480a25580f35b634e487b7160e01b875260118652602487fd5b905162461bcd60e51b815291820152602360248201527f796f7520646964206e6f7420636f6e7472696275746520746f20746869732073604482015262616c6560e81b6064820152608490fd5b905162461bcd60e51b815291820152603860248201527f63616e6e6f742075736520656d657267656e6379207769746864726177616c2060448201527718599d195c881c9959dd5b185c881dda5d1a191c985dd85b60421b6064820152608490fd5b906020606492519162461bcd60e51b8352820152601c60248201527b73616c6520686173206265656e2063617368656420616c726561647960201b6044820152fd5b5050346102ea57816003193601126102ea576020906014549051908152f35b5050346102ea57816003193601126102ea5760209063ffffffff601154169051908152f35b9190503461039f578060031936011261039f5761042391356106fe60016106ed612514565b9383875281602052862001546125a2565b6128f9565b5050346102ea57816003193601126102ea576020906016549051908152f35b90503461039f57602036600319011261039f5780359161074061296f565b61076b7f00000000000000000000000000000000000000000000000000000000000000004210612a2b565b61077361296f565b6012548311156107b25750508060145561078b61302e565b7f83d190eb78c1206ea1abb0222d475a5f70b7f63bcd534ab65e9404b39016c7a48280a280f35b906020608492519162461bcd60e51b8352820152603660248201527f76657374696e6720656e642074696d652068617320746f206265206166746572604482015275207769746864726177616c2073746172742074696d6560501b6064820152fd5b9190503461039f57602036600319011261039f57813591600a548452600160205281842033855260205260ff8285205416156108e857506108767f00000000000000000000000000000000000000000000000000000000000000004210612a2b565b6108ab8230337f00000000000000000000000000000000000000000000000000000000000000006001600160a01b0316613398565b506108b882600e54612a0d565b600e55519081527fda8220a878ff7a89474ccffdaa31ea1ed1ffbb0207d5051afccc4fbaf81f9bcd60203392a280f35b6020606492519162461bcd60e51b8352820152601160248201527031b0b63632b9103737ba10333ab73232b960791b6044820152fd5b5050346102ea5760203660031901126102ea5760209061094461093f6124fe565b612ebf565b9051908152f35b5050346102ea57816003193601126102ea576020906003549051908152f35b5050346102ea57816003193601126102ea5760025490516001600160a01b039091168152602090f35b5050346102ea57816003193601126102ea5760209061ffff60025460a01c169051908152f35b5050346102ea57816003193601126102ea576020906017549051908152f35b90503461039f57602036600319011261039f5780359162ffffff8316809303610b0157610a0361296f565b610a6c7f00000000000000000000000000000000000000000000000000000000000000004210610a3281612a2b565b610a5c857f0000000000000000000000000000000000000000000000000000000000000000612a0d565b601255610a6761296f565b612a2b565b6309679a36831015610aaf5750508062ffffff19600c541617600c557f0dac7b34fe917a51c24c51f379615699f5c23ce9168eaed469bc161c900286088280a280f35b906020608492519162461bcd60e51b8352820152602660248201527f776974686472617744656c61792068617320746f2062652077697468696e203560448201526520796561727360d01b6064820152fd5b8380fd5b5050346102ea57816003193601126102ea576020906006549051908152f35b90503461039f57602036600319011261039f57359060ff8216820361039f5760ff610b65916003548552600160205280852033865260205284205416612fed565b6002805461ffff60a01b191660a09290921b60ff60a01b1691909117905580f35b9190503461039f57602036600319011261039f57610ba26124fe565b91610bab61296f565b600b5491610bb9848461257a565b610bf957505081610bc99161287f565b6001600160a01b03167fde112653552cba8a4f696cac12b4478ce2b9b8c0e04429455a2052ec7c0412ce8280a280f35b906020606492519162461bcd60e51b8352820152600e60248201526d30b63932b0b23c9031b0b9b432b960911b6044820152fd5b5050346102ea57816003193601126102ea5751908152602090f35b5050346102ea57816003193601126102ea57602090600b549051908152f35b9190503461039f578260031936011261039f57600b54835260209060018252808420338552825260ff81852054168015610f6a575b15610f2c57610cd262ffffff600c54167f0000000000000000000000000000000000000000000000000000000000000000612a0d565b421115610ef557600f5460ff8116610ec25760ff1916600117600f5580516370a0823160e01b8082523082860152909390926001600160a01b037f000000000000000000000000000000000000000000000000000000000000000081168287602481845afa968715610eb8578897610e85575b506064610d5b8861ffff60025460a01c166129fa565b04610d70610d69828a612a8e565b33846132f1565b5080610e6e575b50507f00000000000000000000000000000000000000000000000000000000000000001691835194855230908501528084602481855afa938415610e64578694610e2f575b50610e19610e107f83205c70ca31ffcb57664adecfd9894647d48665aefae1fb38bbc7ca4c1b86fb95610dfc610df36010546129c7565b60055490612a6e565b90600e54818110600014610e285750612a8e565b809333906132f1565b5082519485528401523392a280f35b9050612a8e565b93508084813d8311610e5d575b610e46818361248c565b81010312610e5957925192610e19610dbc565b8580fd5b503d610e3c565b83513d88823e3d90fd5b610e7d918360025416906132f1565b503880610d77565b9096508281813d8311610eb1575b610e9d818361248c565b81010312610ead57519538610d45565b8780fd5b503d610e93565b85513d8a823e3d90fd5b505162461bcd60e51b815291820152600e60248201526d185b1c9958591e4818d85cda195960921b604482015260649150fd5b5162461bcd60e51b815291820152601360248201527218d85b9b9bdd081dda5d1a191c985dc81e595d606a1b604482015260649150fd5b5162461bcd60e51b815291820152601a60248201527931b0b63632b9103737ba1031b0b9b432b91037b91037bbb732b960311b604482015260649150fd5b5083546001600160a01b03163314610c9c565b90503461039f578160031936011261039f578160209360ff92610f9e612514565b90358252600186528282206001600160a01b039091168252855220549151911615158152f35b5050346102ea57816003193601126102ea57905490516001600160a01b039091168152602090f35b5050346102ea57816003193601126102ea57602090600e549051908152f35b9190503461039f578060031936011261039f576001600160401b039180358381116113f05761103d90369083016123ec565b909360249081359081116113ec5761105890369085016123ec565b929061106261296f565b61108d7f00000000000000000000000000000000000000000000000000000000000000004210612a2b565b61109561296f565b8382036113ac57811561137957606493848311611337576110b461302e565b88928998601254813511156112d9578a945b8286106111b2575050505050508160ff8096160361115e575050509082601455815190819283926015549092601587526020928388209388925b848410611137575050505050500390207f3593839147bb7832f5ec3cbd35ab371fb0283d503cfc9460ed0bd7b473f8efd48280a280f35b85548752600180870154821683890152899850968301966002909601959390930192611100565b90602b6a07175616c20746f203130360ac1b926020608496519562461bcd60e51b87528601528401527f746f74616c20696e7075742070657263656e7461676520646f65736e277420656044840152820152fd5b6111c08684849d989d61309f565b351115611299576111f06111d58b848461309f565b35956111ea6111e58d878961309f565b6130af565b906130bd565b996111fc81848461309f565b3561120b6111e583878961309f565b8b51916112178361245b565b8252602082019160ff80921683526015908154600160401b8110156112855761124790600193848201905561252a565b919091611272579061126c95949392915181550191511660ff19825416179055612fde565b946110c6565b5050634e487b7160e01b8f528e8c52898ffd5b5050634e487b7160e01b8f5260418c52898ffd5b885162461bcd60e51b81526020818a0152601c818801527b3230ba32b9903737ba1034b71030b9b1b2b73234b7339037b93232b960211b60448201528790fd5b885162461bcd60e51b81526020818a01526034818801527f666972737420636c61696d2074696d65206973206265666f726520656e642074604482015273696d65202b2077697468647261772064656c617960601b81890152608490fd5b5050506020601e9294519362461bcd60e51b85528401528201527f696e707574206c656e6774682063616e6e6f74206578636565642031303000006044820152fd5b855162461bcd60e51b8152602081870152600e818501526d696e70757420697320656d70747960901b6044820152606490fd5b855162461bcd60e51b8152602081870152601b818501527a0c8c2e8cae640c2dcc840e0c6e840c8decae6dc4ee840dac2e8c6d602b1b6044820152606490fd5b8680fd5b8480fd5b5050346102ea57816003193601126102ea5760209060ff600f541690519015158152f35b5050346102ea57816003193601126102ea57602090517f00000000000000000000000000000000000000000000000000000000000000008152f35b839150346102ea576020908160031936011261039f578035916001600160401b03918284116113f057366023850112156113f057838101356114948161255f565b946114a18851968761248c565b81865236602483830101116113ec57818792602486930183890137860101526114c861296f565b835192831161160157506114dd601a54612421565b601f81116115bd575b5080601f831160011461154357509381611532939285966000805160206134bc8339815191529691611538575b508160011b916000199060031b1c191617601a555b51918291826124d2565b0390a180f35b905083015187611513565b90601f198316601a86528286209286905b8282106115a5575050926000805160206134bc8339815191529596926001928261153297961061158c575b5050811b01601a55611528565b85015160001960f88460031b161c19169055878061157f565b80600185968294968a01518155019501930190611554565b601a8552818520601f840160051c8101918385106115f7575b601f0160051c01905b8181106115ec57506114e6565b8581556001016115df565b90915081906115d6565b634e487b7160e01b855260419052602484fd5b833461165c578060031936011261165c5761162d61296f565b80546001600160a01b03198116825581906001600160a01b031660008051602061349c8339815191528280a380f35b80fd5b90503461039f57606036600319011261039f57604435926001600160a01b038416840361165c57506020926109449160243590356130d1565b5050346102ea5760203660031901126102ea5760209160ff9082906001600160a01b036116c36124fe565b168152600d855220541690519015158152f35b839150346102ea5760203660031901126102ea57359060155482101561165c57506117009061252a565b5060ff600182549201541682519182526020820152f35b5050346102ea5760203660031901126102ea5760209181906001600160a01b0361173f6124fe565b1681526013845220549051908152f35b5050346102ea5760203660031901126102ea5760209181906001600160a01b036117776124fe565b1681526008845220549051908152f35b9190503461039f57602036600319011261039f576117a36124fe565b916117ac61296f565b601754916117ba848461257a565b6117fa575050816117ca9161287f565b6001600160a01b03167f7aba5fc71e3607d34203924738fbacc00b5782879615f86db108794b4bdcc95b8280a280f35b906020606492519162461bcd60e51b8352820152601860248201527730b63932b0b23c903bb434ba32b634b9ba1039b2ba3a32b960411b6044820152fd5b5050346102ea5760203660031901126102ea5760209181906001600160a01b036118606124fe565b1681526019845220549051908152f35b5050346102ea57816003193601126102ea576020906010549051908152f35b5050346102ea57816003193601126102ea576020906007549051908152f35b5050346102ea57816003193601126102ea576020906012549051908152f35b9190503461039f57602036600319011261039f576118e96124fe565b916118f261296f565b600b5491611900848461257a565b1561194157505081611911916128f9565b6001600160a01b03167f9ea89cc513d6a1059d0f23dcb0e08adb49a8261b5e4f043e6284869df5e5b0428280a280f35b906020606492519162461bcd60e51b8352820152600a6024820152693737ba1031b0b9b432b960b11b6044820152fd5b90503461039f57602036600319011261039f578035916017548452600160205280842033855260205260ff81852054168015611a29575b156119da575050806016557fc504a95022b9d01b3024e95b0a85c200d0c538f417160776512b95fcbf7b2daa8280a280f35b906020608492519162461bcd60e51b83528201526024808201527f63616c6c6572206e6f742077686974656c69737420736574746572206f72206f6044820152633bb732b960e11b6064820152fd5b5083546001600160a01b031633146119a8565b5050346102ea5760203660031901126102ea5760209181906001600160a01b03611a646124fe565b1681526018845220549051908152f35b82843461165c578060031936011261165c5790601554611a9381612eee565b92611aa08351948561248c565b81845260158152602093848101928260008051602061347c833981519152855b838310611b165750505050835194859481860192828752518093528086019493905b838210611aef5786860387f35b84518051875283015160ff1686840152879650948501949382019360019190910190611ae2565b6002896001928a9b9897999a51611b2c8161245b565b8554815260ff858701541683820152815201920192019190979695939497611ac0565b9190503461039f578260031936011261039f57611b9d611b9662ffffff600c54167f0000000000000000000000000000000000000000000000000000000000000000612a0d565b4211612a9b565b611bab600283541415612bab565b6002825560055415611bdb5750600190611bd7611bc733612ebf565b611bd081612dc9565b1515612bf7565b5580f35b906020606492519162461bcd60e51b8352820152601560248201527475736520776974686472617720676976656177617960581b6044820152fd5b9190503461039f57602036600319011261039f57611c326124fe565b91611c3b61296f565b60175491611c49848461257a565b15611c8a57505081611c5a916128f9565b6001600160a01b03167ffc207a8bcdd5332a1120583e36168220c0715c5e8eb65668e320e48d03c9d6ca8280a280f35b906020606492519162461bcd60e51b835282015260146024820152733737ba103bb434ba32b634b9ba1039b2ba3a32b960611b6044820152fd5b839150346102ea57826003193601126102ea57611cdf612514565b90336001600160a01b03831603611cfb579061042391356128f9565b608490602085519162461bcd60e51b8352820152602f60248201527f416363657373436f6e74726f6c3a2063616e206f6e6c792072656e6f756e636560448201526e103937b632b9903337b91039b2b63360891b6064820152fd5b5050346102ea57816003193601126102ea57602090600a549051908152f35b5050346102ea57816003193601126102ea57602090517f00000000000000000000000000000000000000000000000000000000000000008152f35b5050346102ea57816003193601126102ea57517f00000000000000000000000000000000000000000000000000000000000000006001600160a01b03168152602090f35b9190503461039f578060031936011261039f576104239135611e1960016106ed612514565b61287f565b90503461039f57602080600319360112610b0157611e3a6124fe565b92611e4361296f565b611e77611b9662ffffff600c54167f0000000000000000000000000000000000000000000000000000000000000000612a0d565b6001600160a01b0384811693907f0000000000000000000000000000000000000000000000000000000000000000168414610e5957829060248351809681936370a0823160e01b835230908301525afa928315611f40578593611f0f575b50611f04837fb1d34d1c064a5cb36c65797ef779e448eefccf2b978edbcfd206cc687c8cea5a949533906132f1565b50519283523392a280f35b92508183813d8311611f39575b611f26818361248c565b810103126113f057915191611f04611ed5565b503d611f1c565b81513d87823e3d90fd5b8390346102ea5760203660031901126102ea5735611f6661296f565b806007557f4d893dbff365afe590ba8bf0f5d258598f5e63fde5b989dcd4902cf89d403c2f8280a280f35b90503461039f57602036600319011261039f57816020936001923581528285522001549051908152f35b90503461039f578160031936011261039f57611fd56124fe565b92602435906001600160401b03821161165c575092611ffc612002926020953691016123ec565b91612f05565b90519015158152f35b9190503461039f5760209081600319360112610b015782356001600160401b0381116113f05761203e90369085016123ec565b612072611b9662ffffff600c54167f0000000000000000000000000000000000000000000000000000000000000000612a0d565b612080600286541415612bab565b6002855560055461213f57906120a3916016541591821561212d575b5050612b6f565b6120ac33612ebf565b338552600d835260ff828620541615612116575b6120c981612dc9565b156120d657836001845580f35b5162461bcd60e51b815291820152601c60248201527b776974686472617720676976656177617920616d6f756e74206c6f7760201b604482015260649150fd5b6018835280828620556019835280828620556120c0565b612138925033612f05565b388061209c565b50505162461bcd60e51b815291820152600e60248201526d6e6f74206120676976656177617960901b604482015260649150fd5b5050346102ea57816003193601126102ea5760209063ffffffff600954169051908152f35b5050346102ea5760203660031901126102ea576121d560ff6121b86124fe565b926003548552600160205280852033865260205284205416612fed565b600280546001600160a01b0319166001600160a01b039290921691909117905580f35b5050346102ea57816003193601126102ea5780519082601a5461221a81612421565b808552906001908181169081156122a3575060011461224a575b5050506115288261224694038361248c565b0390f35b601a8352602095507f057c384a7d1c54f3a1b2e5e67b2617b8224fdfd1ea7234eea573a6ff665ff63e5b8284106122905750505082612246946115289282010194612234565b8054868501880152928601928101612274565b61224697506115289450602092508693915060ff191682840152151560051b82010194612234565b5050346102ea57816003193601126102ea5760209062ffffff600c54169051908152f35b90503461039f57602036600319011261039f57359063ffffffff60e01b821680920361039f5760209250637965db0b60e01b8214918215612334575b50519015158152f35b6301ffc9a760e01b1491503861232b565b9190503461039f573660031901126102ea57602435906001600160401b03821161039f576123e26123dd61237f61042394369085016123ec565b906123ac427f00000000000000000000000000000000000000000000000000000000000000001115612af6565b6123d77f00000000000000000000000000000000000000000000000000000000000000004210612b37565b33612f05565b612b6f565b6006549035612c3e565b9181601f8401121561241c578235916001600160401b03831161241c576020808501948460051b01011161241c57565b600080fd5b90600182811c92168015612451575b602083101461243b57565b634e487b7160e01b600052602260045260246000fd5b91607f1691612430565b604081019081106001600160401b0382111761247657604052565b634e487b7160e01b600052604160045260246000fd5b601f909101601f19168101906001600160401b0382119082101761247657604052565b60005b8381106124c25750506000910152565b81810151838201526020016124b2565b604091602082526124f281518092816020860152602086860191016124af565b601f01601f1916010190565b600435906001600160a01b038216820361241c57565b602435906001600160a01b038216820361241c57565b60155481101561254957601560005260206000209060011b0190600090565b634e487b7160e01b600052603260045260246000fd5b6001600160401b03811161247657601f01601f191660200190565b600052600160205260406000209060018060a01b031660005260205260ff6040600020541690565b600090808252600191602091838352604093848320338452845260ff8584205416156125cf575050505050565b84516001600160401b039233929060608301858111848210176127bd578852602a8352868301938836863783511561286b5760308553835183101561286b576078602185015360295b83811161280157506127d157908751946080860190868210908211176127bd578852604285528685019560603688378551156127a9576030875385518210156127a95790607860218701536041915b81831161273b5750505061270b579385936126f1936126e26048946126b976020b1b1b2b9b9a1b7b73a3937b61d1030b1b1b7bab73a1604d1b996127079b519a8b9788015251809260378801906124af565b8401917001034b99036b4b9b9b4b733903937b6329607d1b6037840152518093868401906124af565b0103602881018552018361248c565b5162461bcd60e51b8152918291600483016124d2565b0390fd5b60648587519062461bcd60e51b8252806004830152602482015260008051602061345c8339815191526044820152fd5b909192600f81166010811015612795576f181899199a1a9b1b9c1cb0b131b232b360811b901a61276b8589612a1a565b5360041c92801561278157600019019190612667565b634e487b7160e01b82526011600452602482fd5b634e487b7160e01b83526032600452602483fd5b634e487b7160e01b81526032600452602490fd5b634e487b7160e01b87526041600452602487fd5b60648789519062461bcd60e51b8252806004830152602482015260008051602061345c8339815191526044820152fd5b90600f81166010811015612857576f181899199a1a9b1b9c1cb0b131b232b360811b901a61282f8387612a1a565b5360041c9080156128435760001901612618565b634e487b7160e01b88526011600452602488fd5b634e487b7160e01b89526032600452602489fd5b634e487b7160e01b87526032600452602487fd5b906000918083526001602052604083209160018060a01b03169182845260205260ff604084205416156128b157505050565b80835260016020526040832082845260205260408320600160ff198254161790557f2f8788117e7eff1d82e926ec794901d17c78024a50270940304540a733656f0d339380a4565b906000918083526001602052604083209160018060a01b03169182845260205260ff60408420541661292a57505050565b8083526001602052604083208284526020526040832060ff1981541690557ff6391f5c32d9c69d2a47ea670b442974b53935d1edc7fd64eb21e047a839171b339380a4565b6000546001600160a01b0316330361298357565b606460405162461bcd60e51b815260206004820152602060248201527f4f776e61626c653a2063616c6c6572206973206e6f7420746865206f776e65726044820152fd5b90670de0b6b3a7640000918281029281840414901517156129e457565b634e487b7160e01b600052601160045260246000fd5b818102929181159184041417156129e457565b919082018092116129e457565b908151811015612549570160200190565b15612a3257565b60405162461bcd60e51b81526020600482015260146024820152731cd85b1948185b1c9958591e481cdd185c9d195960621b6044820152606490fd5b8115612a78570490565b634e487b7160e01b600052601260045260246000fd5b919082039182116129e457565b15612aa257565b60405162461bcd60e51b815260206004820152602660248201527f63616e2774207769746864726177206265666f726520636c61696d20697320736044820152651d185c9d195960d21b6064820152608490fd5b15612afd57565b60405162461bcd60e51b815260206004820152601260248201527139b0b632903430b9903737ba103132b3bab760711b6044820152606490fd5b15612b3e57565b60405162461bcd60e51b815260206004820152600960248201526839b0b6329037bb32b960b91b6044820152606490fd5b15612b7657565b60405162461bcd60e51b815260206004820152600d60248201526c1c1c9bdbd9881a5b9d985b1a59609a1b6044820152606490fd5b15612bb257565b60405162461bcd60e51b815260206004820152601f60248201527f5265656e7472616e637947756172643a207265656e7472616e742063616c6c006044820152606490fd5b15612bfe57565b60405162461bcd60e51b81526020600482015260186024820152773737903a37b5b2b7103a37903132903bb4ba34323930bbb760411b6044820152606490fd5b90612c4b82601054612a0d565b601055612c5d60026004541415612bab565b60026004556007548210612d91578111612d5657612ca68130337f00000000000000000000000000000000000000000000000000000000000000006001600160a01b0316613398565b50600090338252602091600883526040918282205415612d31575b33825260088452828220612cd6828254612a0d565b905582519081527f2499a5330ab0979cc612135e7883ebc3cd5c9f7a8508f042540c34723348f632843392a26001600455338152600883526018612d1f610df3848420546129c7565b93338352601981528484842055522055565b60095463ffffffff612d44818316612eaa565b169063ffffffff191617600955612cc1565b60405162461bcd60e51b8152602060048201526013602482015272195e18d959591cc81b585e081c185e5b595b9d606a1b6044820152606490fd5b60405162461bcd60e51b815260206004820152601060248201526f30b6b7bab73a103132b637bb9036b4b760811b6044820152606490fd5b612dd4811515612bf7565b612e6b60406000338152600d60205260ff828220541615612e6f575b612e2484337f00000000000000000000000000000000000000000000000000000000000000006001600160a01b03166132f1565b5081518481527f884edad9ce6fa2440d8a54cc123490eb96d2768479d49ff9c7366125a942436460203392a233815260136020524282822055601860205220918254612a8e565b9055565b60115463ffffffff612e82818316612eaa565b169063ffffffff191617601155338152600d602052818120600160ff19825416179055612df0565b90600163ffffffff809316019182116129e457565b612eeb9060018060a01b03811660005260196020526040600020546018602052604060002054906130d1565b90565b6001600160401b0381116124765760051b60200190565b6040805160609290921b6001600160601b031916602080840191825260148452939591939192612f348161245b565b5190209360165494612f4582612eee565b96612f528651988961248c565b828852838801600593841b82019136831161241c578590915b838310612fce5750505050926000935b8751851015612fc35784831b88018401519086600083831015612fb35750506000528352612fad856000205b94612fde565b93612f7b565b9091612fad938252865220612fa7565b945095505050501490565b8235815291810191869101612f6b565b60001981146129e45760010190565b15612ff457565b60405162461bcd60e51b815260206004820152601260248201527136bab9ba103132903a30bc1039b2ba3a32b960711b6044820152606490fd5b60155460008060155581613040575050565b6001600160ff1b038216820361308b576015815260008051602061347c833981519152600192831b810192905b83811061307a5750505050565b80836002925583838201550161306d565b634e487b7160e01b81526011600452602490fd5b91908110156125495760051b0190565b3560ff8116810361241c5790565b9060ff8091169116019060ff82116129e457565b90916014544281116131d6575060155490811515806131b6575b6130f55750505090565b909250600093919391825b60ff8581831610156131a8576131158261252a565b504290541161317f576001600160a01b0384166000908152601360205260409020546131408361252a565b50541161315d575b5060ff8091169081146129e457600101613100565b938194600161316e6131789461252a565b50015416906130bd565b9238613148565b50509392505060ff905b169081156131a15760649161319d916129fa565b0490565b5050600090565b50509392505060ff90613189565b5060001982018281116129e4576131cc9061252a565b50429054116130eb565b6001600160a01b03909116600090815260136020526040902054601254612eeb94509192613222929161321c919083811061322857613216905b42612a8e565b906129fa565b92612a8e565b90612a6e565b5061321683613210565b1561323957565b60405162461bcd60e51b815260206004820152601460248201527318d85b1b17dd1bd7db9bdb97d8dbdb9d1c9858dd60621b6044820152606490fd5b3d156132a0573d906132868261255f565b91613294604051938461248c565b82523d6000602084013e565b606090565b156132ac57565b60405162461bcd60e51b815260206004820152601e60248201527f6c6f775f6c6576656c5f636f6e74726163745f63616c6c5f6661696c656400006044820152606490fd5b6132fd813b1515613232565b602060405161330b8161245b565b60198152787472616e7366657228616464726573732c75696e743235362960381b91015260405163a9059cbb60e01b602082019081526001600160a01b0390931660248201526044808201949094529283526080830192916001600160401b03841183851017612476576000809493819460405251925af19061338c613275565b50613396826132a5565b565b906133a5823b1515613232565b6040516001600160401b0394906060810186811182821017612476576040526025815264743235362960d81b604060208301927f7472616e7366657246726f6d28616464726573732c616464726573732c75696e84520152602563ffffffff60e01b91201691604051946020860193845260018060a01b03809216602487015216604485015260648401526064835260a083019383851090851117612476576000809493819460405251925af19061338c61327556fe537472696e67733a20686578206c656e67746820696e73756666696369656e7455f448fdea98c4d29eb340757ef0a66cd03dbb9538908a6a81d96026b71ec4758be0079c531659141344cd1fd0a4f28419497f9722a3daafe3b4186f6b6457e07d54a9964a6e80cd8847f2d2f9089adad79dfe2945af7128f5b673e67c319d23a26469706673582212207c077a53349ad9523d042dc81a5ca92757590fc6cb349d44c575f26394c19dfd64736f6c63430008130033",
  "linkReferences": {},
  "deployedLinkReferences": {}
}